:020000040800F2
:10000000000002207D100008BD0E0008C30E00088D
:10001000C90E0008CF0E0008D50E00080000000031
:10002000000000000000000000000000DB0E0008DF
:10003000E90E000800000000F70E0008050F000898
:10004000CD100008CD100008CD100008CD1000081C
:10005000CD100008CD100008CD100008CD1000080C
:10006000CD100008CD100008CD100008CD100008FC
:10007000CD100008CD100008CD100008CD100008EC
:10008000CD100008CD100008CD100008CD100008DC
:10009000CD100008CD100008CD100008CD100008CC
:1000A000CD100008CD100008CD100008CD100008BC
:1000B000CD100008CD100008CD100008CD100008AC
:1000C000CD100008CD100008CD100008CD1000089C
:1000D000CD100008CD100008CD100008CD1000088C
:1000E000CD100008CD100008CD100008CD1000087C
:1000F000CD100008CD100008CD100008CD1000086C
:10010000CD100008CD100008CD100008CD1000085B
:10011000CD100008B9050008CD100008CD1000086A
:10012000CD100008CD100008CD100008CD1000083B
:10013000CD100008CD100008CD100008CD1000082B
:10014000CD100008CD100008CD100008CD1000081B
:10015000CD100008CD100008CD100008CD1000080B
:10016000CD100008CD100008CD100008CD100008FB
:10017000CD100008CD100008CD10000800000000D0
:08018000CD100008CD100008AD
:1001900010B5054C237833B9044B13B10448AFF3C1
:1001A00000800123237010BD7800002000000000B3
:1001B0002450000808B5034B1BB103490348AFF3B3
:1001C000008008BD000000007C00002024500008D2
:1001D00010F8012B11F8013B012A28BF9A42F7D0F1
:1001E000D01A70470000000000000000000000006E
:1001F00001F0FF01102A2BDB10F0070F08D010F8D8
:10020000013B013A8B422DD010F0070F42B3F6D1DB
:10021000F0B441EA012141EA014122F007047FF0F4
:1002200000070023F0E80256083C85EA010586EA4B
:10023000010685FA47F5A3FA87F586FA47F6A5FA87
:1002400087F68EB9EED1F0BC01F0FF0102F0070293
:1002500032B110F8013B013A83EA010313B1F8D13E
:100260000020704701387047002D06BF354603381F
:10027000073815F0010F07D1013015F4807F02BF58
:10028000013015F4C03F0130F0BC0138704700BFA9
:1002900053B94AB9002908BF00281CBF4FF0FF31ED
:1002A0004FF0FF3000F074B9ADF1080C6DE904CEE9
:1002B00000F006F8DDF804E0DDE9022304B0704741
:1002C0002DE9F047089D04468E46002B4DD18A4209
:1002D000944669D9B2FA82F252B101FA02F3C2F13C
:1002E000200120FA01F10CFA02FC41EA030E9440CD
:1002F0004FEA1C48210CBEFBF8F61FFA8CF708FBEE
:1003000016E341EA034306FB07F199420AD91CEBC5
:10031000030306F1FF3080F01F81994240F21C81F7
:10032000023E63445B1AA4B2B3FBF8F008FB10333F
:1003300044EA034400FB07F7A7420AD91CEB040474
:1003400000F1FF3380F00A81A74240F20781644444
:10035000023840EA0640E41B00261DB1D4400023C9
:10036000C5E900433146BDE8F0878B4209D9002D2D
:1003700000F0EF800026C5E9000130463146BDE8B7
:10038000F087B3FA83F6002E4AD18B4202D3824221
:1003900000F2F980841A61EB030301209E46002DD0
:1003A000E0D0C5E9004EDDE702B9FFDEB2FA82F225
:1003B000002A40F09280A1EB0C014FEA1C471FFA83
:1003C0008CFE0126200CB1FBF7F307FB131140EA6A
:1003D00001410EFB03F0884208D91CEB010103F137
:1003E000FF3802D2884200F2CB804346091AA4B2F9
:1003F000B1FBF7F007FB101144EA01440EFB00FECD
:10040000A64508D91CEB040400F1FF3102D2A64531
:1004100000F2BB800846A4EB0E0440EA03409CE7D0
:10042000C6F12007B34022FA07FC4CEA030C20FA7D
:1004300007F401FA06F31C43F9404FEA1C4900FA9D
:1004400006F3B1FBF9F8200C1FFA8CFE09FB18111A
:1004500040EA014108FB0EF0884202FA06F20BD98D
:100460001CEB010108F1FF3A80F08880884240F2DD
:100470008580A8F102086144091AA4B2B1FBF9F021
:1004800009FB101144EA014100FB0EFE8E4508D91C
:100490001CEB010100F1FF346CD28E456AD90238A1
:1004A000614440EA0840A0FB0294A1EB0E01A14286
:1004B000C846A64656D353D05DB1B3EB080261EBF4
:1004C0000E0101FA07F722FA06F3F1401F43C5E9CE
:1004D000007100263146BDE8F087C2F12003D84004
:1004E0000CFA02FC21FA03F3914001434FEA1C4746
:1004F0001FFA8CFEB3FBF7F007FB10360B0C43EA38
:10050000064300FB0EF69E4204FA02F408D91CEBE7
:10051000030300F1FF382FD29E422DD902386344E5
:100520009B1B89B2B3FBF7F607FB163341EA034185
:1005300006FB0EF38B4208D91CEB010106F1FF38D4
:1005400016D28B4214D9023E6144C91A46EA0046CB
:1005500038E72E46284605E70646E3E61846F8E65D
:100560004B45A9D2B9EB020864EB0C0E0138A3E7A6
:100570004646EAE7204694E74046D1E7D0467BE787
:10058000023B614432E7304609E76444023842E7FF
:10059000704700BF80B582B000AF7860391D4FF062
:1005A000FF330122034802F038FC7B681846083705
:1005B000BD4680BDDC00002080B500AF024802F0DF
:1005C000EFFC00BF80BD00BFDC00002080B584B020
:1005D00000AF78607B681B681D4A934234D11D4B85
:1005E0001B78DBB21A461C4B9B5CFB73FB7B0D2B11
:1005F00002D0FB7B0A2B0DD1164B1B78DBB21A46BF
:10060000154B00219954154B01221A70114B0022F1
:100610001A700EE00F4B1B78DBB20133DAB20D4BD0
:100620001A700C4B1B78DBB23F2B02D9094B00220E
:100630001A70084B1B78DBB21A46074B1344012291
:100640001946074802F07BFC00BF1037BD4680BD4D
:1006500000500040640100202401002065010020BA
:10066000DC00002080B582B000AF00F031FD00F06A
:10067000A5FA00F02FFA00F0BFF900F073FA274B4B
:100680001B78DBB21A46264B134401221946254833
:1006900002F055FC244B1B78DBB2184600F0A4F89E
:1006A00000F04AF8214803F09FFC00237B60204BB8
:1006B0001B78DBB2002B05D01D4B00221A701848A6
:1006C00000F002F900F06AFD02467B68D31A142B91
:1006D000EDD900F063FD7860134B1B78DAB2154B4F
:1006E0001B78DBB29A4208D20F4B1B78DBB2013386
:1006F000DBB2184600F078F8D9E70B4B1B78DAB27A
:100700000C4B1B78DBB29A42D1D9074B1B78DBB27A
:10071000013BDBB2184600F067F8C8E7640100202F
:1007200024010020DC000020000000203C500008D4
:10073000650100200100002080B500AF00211348B2
:1007400001F020FD0421114801F01CFD08210F4893
:1007500001F018FD00210D4802F084F904210B4836
:1007600002F080F90821094802F07CF9074B1B6868
:100770005A6C064B1B6842F400425A64044B012237
:100780001A70044803F030FC00BF80BD94000020C4
:10079000200100205C50000880B500AF00210F4808
:1007A00002F01AFA04210D4802F016FA08210B484B
:1007B00002F012FA0021094801F0ACFD04210748BB
:1007C00001F0A8FD0821054801F0A4FD044B00221A
:1007D0001A70044803F008FC00BF80BD940000209C
:1007E000200100206850000880B485B000AF0346A7
:1007F000FB71FB79642B01D96423FB710F4BDB6820
:10080000FA7902FB03F30E4AA2FB03235B09FB60A8
:100810000A4B1B68FA685A63084B1B68FA689A63AC
:10082000064B1B68FA68DA63064AFB79137000BF4F
:100830001437BD465DF8047B704700BF940000206C
:100840001F85EB510000002080B584B000AF7860B8
:100850007B68B3F57A7F04D37B684CF250329342C5
:1008600003D9144803F0C0FB20E001F027FCF86036
:10087000FA687B68B2FBF3F3013BBB60FFF78CFFC8
:100880000D4B1B68BA68DA620B4ABB68D3600B4B2E
:100890001B78DBB21846FFF7A7FFFFF74DFF084AAA
:1008A0007B6813607968074803F018FB1037BD4672
:1008B00080BD00BF7450000894000020000000209C
:1008C000040000208050000880B582B000AF78603E
:1008D00004223949786803F08FFB0346002B18D1B6
:1008E0007B680433184603F0C3FA0346DAB2334B8D
:1008F0001A70324B1B78DBB2642B02D92F4B642267
:100900001A702E4B1B78DBB219462D4803F0E6FA1D
:100910004DE005222B49786803F06EFB0346002B5F
:1009200009D17B680533184603F0A2FA034618463E
:10093000FFF78AFF3BE024497868FFF749FC03464C
:10094000002B02D1FFF7F8FE31E020497868FFF76D
:100950003FFC0346002B02D1FFF71EFF27E01C4996
:100960007868FFF735FC0346002B1DD1194B1B7827
:10097000DBB21946114B1B78DBB21A46164803F05E
:10098000ADFA164B1B681946154803F0A7FA154B2C
:100990001B78DBB2002B01D0134B00E0134B194640
:1009A000134803F09BFA02E0124803F01DFB00BF5E
:1009B0000837BD4680BD00BF9050000801000020F0
:1009C00098500008A8500008B0500008B85000081F
:1009D000C050000800000020C8500008040000209B
:1009E000E050000820010020F0500008F4500008FA
:1009F000F85000080451000880B592B000AF01F033
:100A00005DFB78647B6C304AA2FB03239B0B013BAC
:100A10003B642E4B2E4A1A602C4B00225A602B4B03
:100A200000229A60294A3B6CD360284B00221A614D
:100A3000264B00225A61254B80229A61234801F0FF
:100A400051FB07F1240300221A605A609A60DA60B1
:100A50001A615A619A6160237B623B6C5B08BB62DE
:100A60000023FB6200233B6300237B6307F1240325
:100A700000221946154801F0BDFC07F124030422A9
:100A80001946124801F0B6FC07F124030822194662
:100A90000E4801F0AFFC3B1D20220021184603F058
:100AA00015FA28233B6100237B614FF480433B62AE
:100AB0003B1D1946054802F0ECF8044800F01CF90B
:100AC00000BF4837BD4680BD5917B7D194000020FC
:100AD0000000014080B588B000AF0023BB601E4B12
:100AE0001B6B1D4A43F0010313631B4B1B6B03F08D
:100AF0000103BB60BB6800237B60174B1B6B164A6E
:100B000043F002031363144B1B6B03F002037B607F
:100B10007B6807F10C0300221A605A609A60DA6061
:100B20001A6102233B610223BB614FF4E063FB6067
:100B300007F10C031946094800F0E0FC4FF460434C
:100B4000FB6007F10C031946054800F0D7FC00BF15
:100B50002037BD4680BD00BF003802400000024083
:100B60000004024080B500AF124B134A1A60114BCB
:100B70004FF4E1325A600F4B00229A600D4B002275
:100B8000DA600C4B00221A610A4B0C225A61094BA5
:100B900000229A61074B0022DA61064802F0F0F861
:100BA00000220021352000F0E0FB352000F0F9FBA9
:100BB00000BF80BDDC0000200050004080B594B034
:100BC00000AF07F1200330220021184603F07EF920
:100BD00007F10C0300221A605A609A60DA601A6109
:100BE0000023BB601D4B1B6C1C4A43F080531364F5
:100BF0001A4B1B6C03F08053BB60BB6800237B6007
:100C0000174B1B68164A43F480431360144B1B6850
:100C100003F480437B607B6802233B620123FB6219
:100C200010233B630023BB6307F12003184600F049
:100C300001FE0F23FB6000233B6100237B61002347
:100C4000BB610023FB6107F10C030021184601F092
:100C500069F800BF5037BD4680BD00BF0038024074
:100C60000070004080B483B000AF00237B60104B65
:100C70005B6C0F4A43F4804353640D4B5B6C03F48D
:100C800080437B607B6800233B60094B1B6C084AF8
:100C900043F080531364064B1B6C03F080533B609E
:100CA0003B6800BF0C37BD465DF8047B704700BF52
:100CB0000038024080B485B000AF78607B681B6864
:100CC0000B4A93420DD10023FB600A4B5B6C094A2F
:100CD00043F001035364074B5B6C03F00103FB60BB
:100CE000FB6800BF1437BD465DF8047B704700BF4A
:100CF000000001400038024080B58AB000AF786043
:100D000007F1140300221A605A609A60DA601A61CF
:100D10007B681B68304A93425AD100233B612F4BBA
:100D20001B6B2E4A43F0010313632C4B1B6B03F028
:100D300001033B613B690023FB60284B1B6B274A87
:100D400043F002031363254B1B6B03F00203FB60AC
:100D5000FB680023BB60214B1B6B204A43F0100350
:100D600013631E4B1B6B03F01003BB60BB68802337
:100D70007B610223BB610023FB6100233B620123F3
:100D80007B6207F114031946154800F0B7FB0323F3
:100D90007B610223BB610023FB6100233B620123D3
:100DA0007B6207F1140319460E4800F0A7FB4FF4CD
:100DB00028537B610223BB610023FB6100233B625C
:100DC00001237B6207F114031946074800F096FBE4
:100DD00000BF2837BD4680BD0000014000380240FA
:100DE00000000240000402400010024080B58AB0BA
:100DF00000AF786007F1140300221A605A609A600D
:100E0000DA601A617B681B68284A93424AD1002342
:100E10003B61274B1B6C264A43F480131364244B1D
:100E20001B6C03F480133B613B690023FB60204B88
:100E30001B6B1F4A43F0040313631D4B1B6B03F032
:100E40000403FB60FB680023BB60194B1B6B184A53
:100E500043F008031363164B1B6B03F00803BB60DE
:100E6000BB684FF480537B610223BB610023FB61AD
:100E700003233B6208237B6207F1140319460D48E4
:100E800000F03CFB04237B610223BB610023FB6178
:100E900003233B6208237B6207F1140319460648CB
:100EA00000F02CFB00BF2837BD4680BD005000403D
:100EB0000038024000080240000C024080B400AF3D
:100EC000FEE780B400AFFEE780B400AFFEE780B479
:100ED00000AFFEE780B400AFFEE780B400AF00BF14
:100EE000BD465DF8047B704780B400AF00BFBD46CF
:100EF0005DF8047B704780B400AF00BFBD465DF86D
:100F0000047B704780B500AF00F034F900BF80BDAE
:100F100080B586B000AFF860B9607A6000237B616D
:100F20000AE0AFF300800146BB685A1CBA60CAB23F
:100F30001A707B6901337B617A697B689A42F0DBC6
:100F40007B6818461837BD4680BD80B586B000AFB7
:100F5000F860B9607A6000237B6109E0BB685A1CC5
:100F6000BA601B781846FFF715FB7B6901337B617C
:100F70007A697B689A42F1DB7B6818461837BD4670
:100F800080BD80B483B000AF78604FF0FF33184667
:100F90000C37BD465DF8047B704780B483B000AF6A
:100FA000786039603B684FF400525A60002318465D
:100FB0000C37BD465DF8047B704780B483B000AF4A
:100FC0007860012318460C37BD465DF8047B7047F6
:100FD00080B485B000AFF860B9607A60002318462D
:100FE0001437BD465DF8047B7047000080B586B0BD
:100FF00000AF7860144A154BD31A7B617B693B6163
:10100000134B1B68002B02D1114B124A1A60104B74
:101010001A687B6813443A699A4207D202F02CFF9F
:1010200003460C221A604FF0FF3309E0084B1B689F
:10103000FB60074B1A687B681344054A1360FB6822
:1010400018461837BD4680BD00000220000400008D
:10105000680100208001002080B400AF064BD3F867
:101060008830054A43F47003C2F8883000BFBD469B
:101070005DF8047B704700BF00ED00E0DFF834D07E
:101080000D480E490E4A002302E0D458C4500433E0
:10109000C4188C42F9D30B4A0B4C002301E01360B7
:1010A0000432A242FBD3FFF7D7FF02F0EBFEFFF7BB
:1010B000D9FA7047000002200000002078000020CC
:1010C000D45200087800002080010020FEE70000D4
:1010D00080B500AF0E4B1B680D4A43F400731360DC
:1010E0000B4B1B680A4A43F480631360084B1B6870
:1010F000074A43F480731360032000F02BF90F209C
:1011000000F008F8FFF7AEFD0023184680BD00BFD1
:10111000003C024080B582B000AF7860124B1A6884
:10112000124B1B7819464FF47A73B3FBF1F3B2FB01
:10113000F3F3184600F043F90346002B01D00123D6
:101140000EE07B680F2B0AD8002279684FF0FF3041
:1011500000F00BF9064A7B681360002300E00123CE
:1011600018460837BD4680BD08000020100000204A
:101170000C00002080B400AF064B1B781A46064BCB
:101180001B681344044A136000BFBD465DF8047B2E
:10119000704700BF100000206C01002080B400AF39
:1011A000034B1B681846BD465DF8047B704700BFC3
:1011B0006C01002080B485B000AF78607B6803F0DC
:1011C0000703FB600C4BDB68BB60BA684FF6FF039C
:1011D0001340BB60FB681A02BB68134343F0BF6354
:1011E00043F40033BB60044ABB68D36000BF1437CC
:1011F000BD465DF8047B704700ED00E080B400AFB1
:10120000044BDB681B0A03F007031846BD465DF874
:10121000047B704700ED00E080B483B000AF03466C
:10122000FB7197F90730002B0BDBFB7903F01F02F2
:10123000074997F907305B09012000FA02F241F8EB
:10124000232000BF0C37BD465DF8047B704700BF0C
:1012500000E100E080B483B000AF03463960FB7169
:1012600097F90730002B0ADB3B68DAB20C4997F993
:1012700007301201D2B20B4483F800230AE03B6826
:10128000DAB20849FB7903F00F03043B1201D2B232
:101290000B441A7600BF0C37BD465DF8047B7047DF
:1012A00000E100E000ED00E080B489B000AFF8603C
:1012B000B9607A60FB6803F00703FB61FB69C3F167
:1012C0000703042B28BF0423BB61FB690433062BEF
:1012D00002D9FB69033B00E000237B614FF0FF3242
:1012E000BB6902FA03F3DA43BB681A407B699A4090
:1012F0004FF0FF317B6901FA03F3D9437B680B4060
:10130000134318462437BD465DF8047B7047000040
:1013100080B582B000AF78607B68013BB3F1807F1D
:1013200001D301230FE00A4A7B68013B53600F2180
:101330004FF0FF30FFF78EFF054B00229A60044B01
:1013400007221A60002318460837BD4680BD00BF3B
:1013500010E000E080B582B000AF78607868FFF7F9
:1013600029FF00BF0837BD4680BD80B586B000AFFD
:101370000346B9607A60FB7300237B61FFF73EFF91
:1013800078617A68B9687869FFF78EFF024697F945
:101390000F3011461846FFF75DFF00BF1837BD46F6
:1013A00080BD80B582B000AF0346FB7197F907306E
:1013B0001846FFF731FF00BF0837BD4680BD80B536
:1013C00082B000AF78607868FFF7A2FF0346184646
:1013D0000837BD4680BD80B584B000AF78607B68BB
:1013E0009B6DFB60FFF7DAFEB8607B6893F83530E1
:1013F000DBB2022B08D07B6880225A657B68002212
:1014000083F83420012352E07B681B681A687B68EC
:101410001B6822F016021A607B681B685A697B6899
:101420001B6822F080025A617B681B6C002B03D181
:101430007B689B6C002B07D07B681B681A687B68F5
:101440001B6822F008021A607B681B681A687B68B8
:101450001B6822F001021A6013E0FFF79FFE0246AC
:10146000BB68D31A052B0CD97B6820225A657B6890
:10147000032283F835207B68002283F8342003237D
:1014800015E07B681B681B6803F00103002BE4D1A7
:101490007B68DB6D3F229A40FB689A607B68012283
:1014A00083F835207B68002283F834200023184617
:1014B0001037BD4680BD80B483B000AF78607B68D4
:1014C00093F83530DBB2022B04D07B6880225A655A
:1014D00001230CE07B68052283F835207B681B68BC
:1014E0001A687B681B6822F001021A600023184604
:1014F0000C37BD465DF8047B7047000080B489B0AE
:1015000000AF7860396000237B6100233B610023DA
:10151000BB610023FB616BE10122FB6902FA03F36B
:101520007B613B681B687A6913403B613A697B6960
:101530009A4240F05A813B685B6803F00303012B39
:1015400005D03B685B6803F00303022B30D17B6856
:101550009B68BB61FB695B00032202FA03F3DB4378
:10156000BA691340BB613B68DA68FB695B0002FA49
:1015700003F3BA691343BB617B68BA699A607B68FD
:101580005B68BB610122FB6902FA03F3DB43BA69C2
:101590001340BB613B685B681B0903F00102FB69F8
:1015A00002FA03F3BA691343BB617B68BA695A60F4
:1015B0003B685B6803F00303032B17D07B68DB6891
:1015C000BB61FB695B00032202FA03F3DB43BA69E8
:1015D0001340BB613B689A68FB695B0002FA03F346
:1015E000BA691343BB617B68BA69DA603B685B68C0
:1015F00003F00303022B23D1FB69DA087B6808326E
:1016000053F82230BB61FB6903F007039B000F22F4
:1016100002FA03F3DB43BA691340BB613B681A6902
:10162000FB6903F007039B0002FA03F3BA69134353
:10163000BB61FB69DA087B680832B96943F822109C
:101640007B681B68BB61FB695B00032202FA03F342
:10165000DB43BA691340BB613B685B6803F003027C
:10166000FB695B0002FA03F3BA691343BB617B6851
:10167000BA691A603B685B6803F44033002B00F0E2
:10168000B4800023FB60604B5B6C5F4A43F4804393
:1016900053645D4B5B6C03F48043FB60FB685B4A07
:1016A000FB699B08023352F82330BB61FB6903F0EE
:1016B00003039B000F2202FA03F3DB43BA691340D2
:1016C000BB617B68524A93422BD07B68514A93425C
:1016D00025D07B68504A93421FD07B684F4A934283
:1016E00019D07B684E4A934213D07B684D4A93428F
:1016F0000DD07B684C4A934207D07B684B4A93429B
:1017000001D107230EE008230CE006230AE005239D
:1017100008E0042306E0032304E0022302E001239F
:1017200000E00023FA6902F0030292009340BA69D4
:101730001343BB613549FB699B080233BA6941F821
:1017400023203B4B9B68BB613B69DB43BA69134079
:10175000BB613B685B6803F48013002B03D0BA695C
:101760003B691343BB61324ABB699360304BDB6812
:10177000BB613B69DB43BA691340BB613B685B6893
:1017800003F40013002B03D0BA693B691343BB6118
:10179000274ABB69D360264B5B68BB613B69DB436F
:1017A000BA691340BB613B685B6803F40033002BEC
:1017B00003D0BA693B691343BB611D4ABB695360DF
:1017C0001B4B1B68BB613B69DB43BA691340BB61C0
:1017D0003B685B6803F48033002B03D0BA693B6934
:1017E0001343BB61124ABB691360FB690133FB61A0
:1017F000FB690F2B7FF690AE00BF00BF2437BD46BC
:101800005DF8047B704700BF00380240003801409B
:10181000000002400004024000080240000C0240A8
:10182000001002400014024000180240001C024058
:10183000003C014080B586B000AF78607B68002B2B
:1018400001D1012367E27B681B6803F00103002BD1
:1018500075D0884B9B6803F00C03042B0CD0854B90
:101860009B6803F00C03082B12D1824B5B6803F4D6
:101870008003B3F5800F0BD17E4B1B6803F400335C
:10188000002B5BD07B685B68002B57D1012342E2C1
:101890007B685B68B3F5803F06D1764B1B68754A61
:1018A00043F4803313601DE07B685B68B3F5A02FC1
:1018B0000CD1704B1B686F4A43F4802313606D4B4F
:1018C0001B686C4A43F4803313600BE0694B1B6860
:1018D000684A23F480331360664B1B68654A23F41F
:1018E000802313607B685B68002B13D0FFF756FCE6
:1018F000386108E0FFF752FC02463B69D31A642BBB
:1019000001D9032307E25B4B1B6803F40033002B70
:10191000F0D014E0FFF742FC386108E0FFF73EFC2E
:1019200002463B69D31A642B01D90323F3E1514BDF
:101930001B6803F40033002BF0D100E000BF7B688C
:101940001B6803F00203002B63D04A4B9B6803F033
:101950000C03002B0BD0474B9B6803F00C03082BA8
:101960001CD1444B5B6803F48003002B16D1414B20
:101970001B6803F00203002B05D07B68DB68012B9A
:1019800001D00123C7E13B4B1B6823F0F8027B68C1
:101990001B69DB00374913430B603AE07B68DB6867
:1019A000002B20D0344B01221A60FFF7F7FB38617F
:1019B00008E0FFF7F3FB02463B69D31A022B01D97B
:1019C0000323A8E12B4B1B6803F00203002BF0D08C
:1019D000284B1B6823F0F8027B681B69DB00254954
:1019E00013430B6015E0244B00221A60FFF7D6FB6F
:1019F000386108E0FFF7D2FB02463B69D31A022B9D
:101A000001D9032387E11B4B1B6803F00203002B62
:101A1000F0D17B681B6803F00803002B36D07B688D
:101A20005B69002B16D0154B01221A60FFF7B6FB3D
:101A3000386108E0FFF7B2FB02463B69D31A022B7C
:101A400001D9032367E10B4B5B6F03F00203002B0B
:101A5000F0D01BE0094B00221A60FFF79FFB3861B2
:101A60000EE0FFF79BFB02463B69D31A022B07D916
:101A7000032350E10038024000004742800E4742F5
:101A8000884B5B6F03F00203002BEAD17B681B6875
:101A900003F00403002B00F097800023FB75814BBB
:101AA0001B6C03F08053002B0FD10023BB607D4BD8
:101AB0001B6C7C4A43F0805313647A4B1B6C03F01D
:101AC0008053BB60BB680123FB75774B1B6803F435
:101AD0008073002B18D1744B1B68734A43F48073D6
:101AE0001360FFF75BFB386108E0FFF757FB024626
:101AF0003B69D31A022B01D903230CE16A4B1B6803
:101B000003F48073002BF0D07B689B68012B06D117
:101B1000644B1B6F634A43F0010313671CE07B684F
:101B20009B68052B0CD15F4B1B6F5E4A43F004038F
:101B300013675C4B1B6F5B4A43F0010313670BE0B9
:101B4000584B1B6F574A23F001031367554B1B6F0C
:101B5000544A23F0040313677B689B68002B15D05D
:101B6000FFF71CFB38610AE0FFF718FB02463B69F0
:101B7000D31A41F28832934201D90323CBE0494B77
:101B80001B6F03F00203002BEED014E0FFF706FBFF
:101B900038610AE0FFF702FB02463B69D31A41F2C3
:101BA0008832934201D90323B5E03E4B1B6F03F00B
:101BB0000203002BEED1FB7D012B05D1394B1B6CB1
:101BC000384A23F0805313647B689B69002B00F034
:101BD000A180344B9B6803F00C03082B5CD07B681E
:101BE0009B69022B41D1314B00221A60FFF7D6FAD4
:101BF000386108E0FFF7D2FA02463B69D31A022B9C
:101C000001D9032387E0274B1B6803F00073002BE7
:101C1000F0D17B68DA697B681B6A1A437B685B6A70
:101C20009B011A437B689B6A5B08013B1B041A43B8
:101C30007B68DB6A1B061B4913434B601B4B01226D
:101C40001A60FFF7ABFA386108E0FFF7A7FA02461F
:101C50003B69D31A022B01D903235CE0114B1B68AB
:101C600003F00073002BF0D054E0104B00221A60F8
:101C7000FFF794FA386108E0FFF790FA02463B69F3
:101C8000D31A022B01D9032345E0064B1B6803F04E
:101C90000073002BF0D13DE07B689B69012B07D1DD
:101CA000012338E0003802400070004060004742E5
:101CB0001B4B5B68FB607B689B69012B28D0FB6832
:101CC00003F480027B68DB699A4221D1FB6803F050
:101CD0003F027B681B6A9A421AD1FA6847F6C073C2
:101CE00013407A68526A9201934211D1FB6803F45F
:101CF00040327B689B6A5B08013B1B049A4207D118
:101D0000FB6803F070627B68DB6A1B069A4201D0B5
:101D1000012300E0002318461837BD4680BD00BFF0
:101D20000038024080B584B000AF786039607B68CD
:101D3000002B01D10123CCE0684B1B6803F00703A3
:101D40003A689A420CD9654B3A68D2B21A70634B22
:101D50001B6803F007033A689A4201D00123B8E0F8
:101D60007B681B6803F00203002B20D07B681B6894
:101D700003F00403002B05D0594B9B68584A43F4E9
:101D8000E05393607B681B6803F00803002B05D0C9
:101D9000534B9B68524A43F460439360504B9B689B
:101DA00023F0F0027B689B684D4913438B607B688E
:101DB0001B6803F00103002B44D07B685B68012B98
:101DC00007D1474B1B6803F40033002B19D10123C3
:101DD0007FE07B685B68022B03D07B685B68032B2A
:101DE00007D13F4B1B6803F00073002B09D101237F
:101DF0006FE03B4B1B6803F00203002B01D1012372
:101E000067E0374B9B6823F003027B685B683449CB
:101E100013438B60FFF7C2F9F8600AE0FFF7BEF9E1
:101E20000246FB68D31A41F28832934201D9032358
:101E30004FE02B4B9B6803F00C027B685B689B00B8
:101E40009A42EBD1254B1B6803F007033A689A428C
:101E50000CD2224B3A68D2B21A70204B1B6803F0A6
:101E600007033A689A4201D0012332E07B681B687D
:101E700003F00403002B08D0194B9B6823F4E052B5
:101E80007B68DB68164913438B607B681B6803F033
:101E90000803002B09D0124B9B6823F460427B6837
:101EA0001B69DB000E4913438B6000F021F80246EA
:101EB0000B4B9B681B0903F00F030A49CB5C22FA0A
:101EC00003F3094A1360094B1B681846FFF722F910
:101ED000002318461037BD4680BD00BF003C0240BD
:101EE0000038024010510008080000200C000020BB
:101EF0002DE9B04F90B000AF00237B630023FB635C
:101F000000233B630023BB63594B9B6803F00C0326
:101F1000082B0DD0082B00F2A180002B02D0042B3F
:101F200003D09BE0534BBB639BE0534BBB6398E0F8
:101F30004F4B5B6803F03F037B634D4B5B6803F4DF
:101F40008003002B28D04A4B5B689B0900223B6230
:101F50007A623B6AC3F308000021474B03FB01F29E
:101F6000002300FB03F31344434AA0FB0212FA626E
:101F70000A46BA62FA6A1344FB627B6B0022BB61B9
:101F8000FA61D7E90623D7E90A01FEF781F902468B
:101F90000B461346FB6353E0354B5B689B090022FD
:101FA0003B617A613B69C3F3080A4FF0000B52466C
:101FB0005B464FF000004FF00001590141EAD26149
:101FC000500102460B46B2EB0A0863EB0B094FF0D7
:101FD00000024FF000034FEA891343EA98634FEA87
:101FE0008812B2EB080463EB09054FF000024FF0D2
:101FF0000003EB0043EA5473E20014461D4614EB61
:102000000A033B6045EB0B037B604FF000024FF08F
:102010000003D7E9004529468B02214643EA915344
:1020200021468A02104619467B6B0022BB60FA608B
:10203000D7E90223FEF72CF902460B461346FB6351
:102040000B4B5B681B0C03F0030301335B003B632A
:10205000FA6B3B6BB2FBF3F3BB6302E0054BBB6374
:1020600000BFBB6B18464037BD46BDE8B08F00BF10
:10207000003802400024F40040787D0180B400AFB5
:10208000034B1B681846BD465DF8047B704700BFD4
:102090000800002080B500AFFFF7F0FF0246054BB7
:1020A0009B689B0A03F007030349CB5C22FA03F306
:1020B000184680BD003802402051000880B500AFAE
:1020C000FFF7DCFF0246054B9B685B0B03F0070341
:1020D0000349CB5C22FA03F3184680BD0038024066
:1020E0002051000880B582B000AF78607B68002B7B
:1020F00001D1012341E07B6893F83D30DBB2002B36
:1021000006D17B68002283F83C207868FEF7D2FD78
:102110007B68022283F83D207B681A687B68043361
:102120001946104600F028FA7B68012283F8462001
:102130007B68012283F83E207B68012283F83F20E0
:102140007B68012283F840207B68012283F84120CC
:102150007B68012283F842207B68012283F84320B8
:102160007B68012283F844207B68012283F84520A4
:102170007B68012283F83D20002318460837BD46BE
:1021800080BD000080B584B000AF786039603B68E6
:10219000002B09D17B6893F83E30DBB2012B14BFD2
:1021A00001230023DBB222E03B68042B09D17B68CA
:1021B00093F83F30DBB2012B14BF01230023DBB2C5
:1021C00015E03B68082B09D17B6893F84030DBB2FF
:1021D000012B14BF01230023DBB208E07B6893F8D6
:1021E0004130DBB2012B14BF01230023DBB2002BF3
:1021F00001D001237CE03B68002B04D17B680222E4
:1022000083F83E2013E03B68042B04D17B68022254
:1022100083F83F200BE03B68082B04D17B68022247
:1022200083F8402003E07B68022283F841207B682A
:102230001B6801223968184600F0EEFB7B681B68BA
:102240002D4A934204D07B681B682C4A934201D1EB
:10225000012300E00023002B07D07B681B685A6C29
:102260007B681B6842F400425A647B681B68224A00
:10227000934222D07B681B68B3F1804F1DD07B68EE
:102280001B681F4A934218D07B681B681D4A934203
:1022900013D07B681B681C4A93420ED07B681B6876
:1022A000164A934209D07B681B68184A934204D0AF
:1022B0007B681B68164A934211D17B681B689B6838
:1022C00003F00703FB60FB68062B10D07B681B68DC
:1022D0001A687B681B6842F001021A6007E07B689D
:1022E0001B681A687B681B6842F001021A600023B1
:1022F00018461037BD4680BD000001400004014073
:102300000004004000080040000C00400040014074
:102310000018004080B582B000AF786039607B68FB
:102320001B6800223968184600F076FB7B681B6842
:102330002E4A934204D07B681B682D4A934201D1F8
:10234000012300E00023002B17D07B681B681A6A6A
:1023500041F211131340002B0FD17B681B681A6ADE
:1023600040F244431340002B07D17B681B685A6C32
:102370007B681B6822F400425A647B681B681A6AF7
:1023800041F211131340002B0FD17B681B681A6AAE
:1023900040F244431340002B07D17B681B681A6846
:1023A0007B681B6822F001021A603B68002B04D195
:1023B0007B68012283F83E2013E03B68042B04D1A4
:1023C0007B68012283F83F200BE03B68082B04D197
:1023D0007B68012283F8402003E07B68012283F8B8
:1023E0004120002318460837BD4680BD000001404B
:1023F0000004014080B586B000AFF860B9607A6033
:102400000023FB75FB6893F83C30012B01D10223BC
:10241000AEE0FB68012283F83C207B680C2B00F2C5
:102420009F8001A252F823F05D2400086125000876
:1024300061250008612500089D2400086125000829
:102440006125000861250008DF24000861250008D7
:1024500061250008612500081F250008FB681B682E
:10246000B968184600F028F9FB681B689A69FB6890
:102470001B6842F008029A61FB681B689A69FB6856
:102480001B6822F004029A61FB681B689969BB68AB
:102490001A69FB681B680A439A6164E0FB681B6861
:1024A000B968184600F078F9FB681B689A69FB6800
:1024B0001B6842F400629A61FB681B689A69FB68BA
:1024C0001B6822F480629A61FB681B689969BB688B
:1024D0001B691A02FB681B680A439A6143E0FB68A8
:1024E0001B68B968184600F0CDF9FB681B68DA690B
:1024F000FB681B6842F00802DA61FB681B68DA6956
:10250000FB681B6822F00402DA61FB681B68D9696A
:10251000BB681A69FB681B680A43DA6123E0FB6841
:102520001B68B968184600F021FAFB681B68DA6975
:10253000FB681B6842F40062DA61FB681B68DA69B9
:10254000FB681B6822F48062DA61FB681B68D9694A
:10255000BB681B691A02FB681B680A43DA6102E068
:102560000123FB7500BFFB68002283F83C20FB7D44
:1025700018461837BD4680BD80B485B000AF78607E
:1025800039607B681B68FB607B68404A934213D0CC
:102590007B68B3F1804F0FD07B683D4A93420BD0EC
:1025A0007B683C4A934207D07B683B4A934203D006
:1025B0007B683A4A934208D1FB6823F07003FB60C2
:1025C0003B685B68FA681343FB607B682F4A934261
:1025D0002BD07B68B3F1804F27D07B682C4A934285
:1025E00023D07B682B4A93421FD07B682A4A9342B0
:1025F0001BD07B68294A934217D07B68284A9342B4
:1026000013D07B68274A93420FD07B68264A9342B7
:102610000BD07B68254A934207D07B68244A9342BB
:1026200003D07B68234A934208D1FB6823F44073AC
:10263000FB603B68DB68FA681343FB60FB6823F0D0
:1026400080023B685B691343FB607B68FA681A6031
:102650003B689A687B68DA623B681A687B689A62B2
:102660007B680A4A934203D07B680C4A934203D1A9
:102670003B681A697B681A637B6801225A6100BF54
:102680001437BD465DF8047B704700BF0000014071
:102690000004004000080040000C0040000401401D
:1026A0000040014000440140004801400018004043
:1026B000001C00400020004080B487B000AF78606C
:1026C00039607B681B6A23F001027B681A627B68B1
:1026D0001B6A7B617B685B683B617B689B69FB6015
:1026E000FB6823F07003FB60FB6823F00303FB60CF
:1026F0003B681B68FA681343FB607B6923F00203A5
:102700007B613B689B687A6913437B617B68204AE5
:10271000934203D07B681F4A93420CD17B6923F01C
:1027200008037B613B68DB687A6913437B617B69E3
:1027300023F004037B617B68154A934203D07B68D6
:10274000144A934211D13B6923F480733B613B6986
:1027500023F400733B613B685B693A6913433B6157
:102760003B689B693A6913433B617B683A695A60ED
:102770007B68FA689A613B685A687B685A637B6831
:102780007A691A6200BF1C37BD465DF8047B70474A
:10279000000001400004014080B487B000AF7860C1
:1027A00039607B681B6A23F010027B681A627B68C1
:1027B0001B6A7B617B685B683B617B689B69FB6034
:1027C000FB6823F4E043FB60FB6823F44073FB6089
:1027D0003B681B681B02FA681343FB607B6923F0AC
:1027E00020037B613B689B681B017A6913437B6113
:1027F0007B68224A934203D07B68214A93420DD1E1
:102800007B6923F080037B613B68DB681B017A698D
:1028100013437B617B6923F040037B617B68174A2C
:10282000934203D07B68164A934213D13B6923F449
:1028300080633B613B6923F400633B613B685B69F8
:102840009B003A6913433B613B689B699B003A6973
:1028500013433B617B683A695A607B68FA689A6106
:102860003B685A687B689A637B687A691A6200BF22
:102870001C37BD465DF8047B704700BF0000014077
:102880000004014080B487B000AF786039607B6895
:102890001B6A23F480727B681A627B681B6A7B6107
:1028A0007B685B683B617B68DB69FB60FB6823F0EE
:1028B0007003FB60FB6823F00303FB603B681B684D
:1028C000FA681343FB607B6923F400737B613B6808
:1028D0009B681B027A6913437B617B68214A9342A0
:1028E00003D07B68204A93420DD17B6923F40063B7
:1028F0007B613B68DB681B027A6913437B617B6900
:1029000023F480637B617B68164A934203D07B6823
:10291000154A934213D13B6923F480533B613B69D1
:1029200023F400533B613B685B691B013A69134325
:102930003B613B689B691B013A6913433B617B68C0
:102940003A695A607B68FA68DA613B685A687B6862
:10295000DA637B687A691A6200BF1C37BD465DF88E
:10296000047B7047000001400004014080B487B040
:1029700000AF786039607B681B6A23F480527B6803
:102980001A627B681B6A3B617B685B687B617B6862
:10299000DB69FB60FB6823F4E043FB60FB6823F426
:1029A0004073FB603B681B681B02FA681343FB60C3
:1029B0003B6923F400533B613B689B681B033A6906
:1029C00013433B617B68124A934203D07B68114AF0
:1029D000934209D17B6923F480437B613B685B6947
:1029E0009B017A6913437B617B687A695A607B68D3
:1029F000FA68DA613B685A687B681A647B683A69EE
:102A00001A6200BF1C37BD465DF8047B704700BFEB
:102A1000000001400004014080B487B000AFF860BE
:102A2000B9607A60BB6803F01F03012202FA03F366
:102A30007B61FB681A6A7B69DB431A40FB681A6298
:102A4000FB681A6ABB6803F01F03796801FA03F395
:102A50001A43FB681A6200BF1C37BD465DF8047B51
:102A60007047000080B584B000AF786039603B6883
:102A7000002B09D17B6893F84230DBB2012B14BFE5
:102A800001230023DBB222E03B68042B09D17B68E1
:102A900093F84330DBB2012B14BF01230023DBB2D8
:102AA00015E03B68082B09D17B6893F84430DBB212
:102AB000012B14BF01230023DBB208E07B6893F8ED
:102AC0004530DBB2012B14BF01230023DBB2002B06
:102AD00001D001236DE03B68002B04D17B6802220A
:102AE00083F8422013E03B68042B04D17B68022268
:102AF00083F843200BE03B68082B04D17B6802225B
:102B000083F8442003E07B68022283F845207B6839
:102B10001B6804223968184600F00DF97B681B68B1
:102B20005A6C7B681B6842F400425A647B681B68DD
:102B3000224A934222D07B681B68B3F1804F1DD09C
:102B40007B681B681E4A934218D07B681B681D4A2D
:102B5000934213D07B681B681B4A93420ED07B685C
:102B60001B681A4A934209D07B681B68184A934233
:102B700004D07B681B68174A934211D17B681B689D
:102B80009B6803F00703FB60FB68062B10D07B6893
:102B90001B681A687B681B6842F001021A6007E034
:102BA0007B681B681A687B681B6842F001021A6028
:102BB000002318461037BD4680BD00BF000001400D
:102BC0000004004000080040000C004000040140E8
:102BD000004001400018004080B582B000AF78602E
:102BE00039607B681B6800223968184600F0A3F83A
:102BF0007B681B681A6A41F211131340002B0FD136
:102C00007B681B681A6A40F244431340002B07D1CB
:102C10007B681B685A6C7B681B6822F400425A640C
:102C20007B681B681A6A41F211131340002B0FD105
:102C30007B681B681A6A40F244431340002B07D19B
:102C40007B681B681A687B681B6822F001021A60A7
:102C50003B68002B04D17B68012283F8422013E0FB
:102C60003B68042B04D17B68012283F843200BE0EE
:102C70003B68082B04D17B68012283F8442003E0E1
:102C80007B68012283F84520002318460837BD469B
:102C900080BD80B485B000AF786039600023FB60F0
:102CA0007B6893F83C30012B01D102233DE07B6827
:102CB000012283F83C20FB6823F0FF023B68DB68BD
:102CC0001343FB60FB6823F440723B689B6813432B
:102CD000FB60FB6823F480623B685B681343FB6026
:102CE000FB6823F400623B681B681343FB60FB68CE
:102CF00023F480523B681B691343FB60FB6823F499
:102D000000523B685B691343FB60FB6823F480421D
:102D10003B68DB691343FB607B681B68FA685A6495
:102D20007B68002283F83C20002318461437BD46F8
:102D30005DF8047B704780B487B000AFF860B9607D
:102D40007A60BB6803F01F03042202FA03F37B617D
:102D5000FB681A6A7B69DB431A40FB681A62FB68EE
:102D60001A6ABB6803F01F03796801FA03F31A4378
:102D7000FB681A6200BF1C37BD465DF8047B7047D4
:102D800080B582B000AF78607B68002B01D1012351
:102D90003FE07B6893F83D30DBB2002B06D17B68C7
:102DA000002283F83C207868FEF720F87B68242214
:102DB00083F83D207B681B68DA687B681B6822F417
:102DC0000052DA60786800F0DFFD7B681B681A69E2
:102DD0007B681B6822F490421A617B681B685A6901
:102DE0007B681B6822F02A025A617B681B68DA68DC
:102DF0007B681B6842F40052DA607B6800221A6428
:102E00007B68202283F83D207B68202283F83E20C7
:102E1000002318460837BD4680BD80B58AB002AF92
:102E2000F860B9603B601346FB8000237B61FB6860
:102E300093F83D30DBB2202B7CD1BB68002B02D055
:102E4000FB88002B01D1012375E0FB6893F83C302F
:102E5000012B01D102236EE0FB68012283F83C20A4
:102E6000FB6800221A64FB68212283F83D20FEF7EC
:102E700095F97861FB68FA889A84FB68FA88DA84A5
:102E8000FB689B68B3F5805F08D1FB681B69002B6A
:102E900004D10023FB61BB68BB6103E0BB68FB613D
:102EA0000023BB61FB68002283F83C202AE03B68DA
:102EB00000937B6900228021F86800F01FFB034625
:102EC000002B01D0032336E0FB69002B0BD1BB693B
:102ED0001B881A46FB681B68C2F308025A60BB696C
:102EE0000233BB6107E0FB691A78FB681B685A6014
:102EF000FB690133FB61FB68DB8C9BB2013B9AB23F
:102F0000FB68DA84FB68DB8C9BB2002BCFD13B687B
:102F100000937B6900224021F86800F0EFFA034635
:102F2000002B01D0032306E0FB68202283F83D201C
:102F3000002300E0022318462037BD4680BD80B53F
:102F400084B000AFF860B9601346FB80FB6893F86B
:102F50003E30DBB2202B1DD1BB68002B02D0FB889A
:102F6000002B01D1012316E0FB6893F83C30012BC4
:102F700001D102230FE0FB68012283F83C20FB68AB
:102F800000221A63FB881A46B968F86800F024FB2F
:102F9000034600E0022318461037BD4680BD0000FE
:102FA00080B5BAB000AF78607B681B681B68C7F853
:102FB000E4307B681B68DB68C7F8E0307B681B681F
:102FC0005B69C7F8DC300023C7F8D8300023C7F8A6
:102FD000D430D7F8E43003F00F03C7F8D830D7F86F
:102FE000D830002B0FD1D7F8E43003F02003002BAA
:102FF00009D0D7F8E03003F02003002B03D0786825
:1030000000F007FC56E2D7F8D830002B00F0DE8045
:10301000D7F8DC3003F00103002B06D1D7F8E030FD
:1030200003F49073002B00F0D180D7F8E43003F064
:103030000103002B0BD0D7F8E03003F48073002B92
:1030400005D07B681B6C43F001027B681A64D7F8DB
:10305000E43003F00403002B0BD0D7F8DC3003F08E
:103060000103002B05D07B681B6C43F002027B68D8
:103070001A64D7F8E43003F00203002B0BD0D7F822
:10308000DC3003F00103002B05D07B681B6C43F0A0
:1030900004027B681A64D7F8E43003F00803002BBD
:1030A00011D0D7F8E03003F02003002B05D1D7F87A
:1030B000DC3003F00103002B05D07B681B6C43F070
:1030C00008027B681A647B681B6C002B00F0ED81A2
:1030D000D7F8E43003F02003002B08D0D7F8E03015
:1030E00003F02003002B02D0786800F092FB7B688D
:1030F0001B685B6903F04003402B0CBF01230023D6
:10310000DBB2C7F8D4307B681B6C03F00803002BDC
:1031100003D1D7F8D430002B4FD0786800F09AFA5A
:103120007B681B685B6903F04003402B41D17B68DF
:103130001B681433C7F89C30D7F89C3053E8003F25
:10314000C7F89830D7F8983023F04003C7F8D0304C
:103150007B681B681433D7F8D020C7F8A820C7F8BD
:10316000A430D7F8A410D7F8A82041E80023C7F866
:10317000A030D7F8A030002BD9D17B689B6B002BF7
:1031800013D07B689B6B7D4A1A657B689B6B1846E6
:10319000FEF791F90346002B16D07B689B6B1B6DE5
:1031A0007A68926B104698470EE0786800F090F9C4
:1031B0000AE0786800F08CF906E0786800F088F999
:1031C0007B6800221A6470E100BF6EE17B681B6BB4
:1031D000012B40F04A81D7F8E43003F01003002BB4
:1031E00000F04381D7F8E03003F01003002B00F02B
:1031F0003C810023BB607B681B681B68BB607B68ED
:103200001B685B68BB60BB687B681B685B6903F01D
:103210004003402B40F0B4807B689B6B1B685B686D
:10322000A7F8BE30B7F8BE30002B00F040817B68B5
:103230009B8DB7F8BE209A4280F039817B68B7F841
:10324000BE20DA857B689B6BDB69B3F5807F00F07D
:1032500088807B681B680C33C7F88830D7F88830C3
:1032600053E8003FC7F88430D7F8843023F48073E4
:10327000C7F8B8307B681B680C33D7F8B820C7F89C
:103280009420C7F89030D7F89010D7F8942041E8F0
:103290000023C7F88C30D7F88C30002BD9D17B684D
:1032A0001B6814337B677B6F53E8003F3B673B6FC2
:1032B00023F00103C7F8B4307B681B681433D7F8D8
:1032C000B420C7F88020FB67F96FD7F8802041E869
:1032D0000023BB67BB6F002BE1D17B681B681433F5
:1032E0003B663B6E53E8003FFB65FB6D23F04003FC
:1032F000C7F8B0307B681B681433D7F8B020FA6683
:10330000BB66B96EFA6E41E800237B667B6E002BCC
:10331000E3D17B68202283F83E207B6800221A6379
:103320007B681B680C33FB64FB6C53E8003FBB6499
:10333000BB6C23F01003C7F8AC307B681B680C3300
:10334000D7F8AC20BA657B65796DBA6D41E800238A
:103350003B653B6D002BE3D17B689B6B1846FEF70A
:103360003AF87B689A8D7B68DB8D9BB2D31A9BB24F
:103370001946786800F0B6F899E000BF1B370008DE
:103380007B689A8D7B68DB8D9BB2D31AA7F8CE3011
:103390007B68DB8D9BB2002B00F08B80B7F8CE30C2
:1033A000002B00F086807B681B680C33BB63BB6B13
:1033B00053E8003F7B637B6B23F49073C7F8C830FE
:1033C0007B681B680C33D7F8C8207A643B64396C7F
:1033D0007A6C41E80023FB63FB6B002BE3D17B6835
:1033E0001B6814337B627B6A53E8003F3B623B6A95
:1033F00023F00103C7F8C4307B681B681433D7F887
:10340000C4203A63FB62F96A3A6B41E80023BB626D
:10341000BB6A002BE3D17B68202283F83E207B68C7
:1034200000221A637B681B680C333B613B6953E8DD
:10343000003FFB60FB6823F01003C7F8C0307B68D7
:103440001B680C33D7F8C020FA61BB61B969FA690F
:1034500041E800237B617B69002BE3D1B7F8CE30D4
:103460001946786800F03EF823E0D7F8E43003F01E
:103470008003002B09D0D7F8E03003F08003002B45
:1034800003D0786800F05DF914E0D7F8E43003F079
:103490004003002B0ED0D7F8E03003F04003002BA0
:1034A00008D0786800F09DF904E000BF02E000BF9A
:1034B00000E000BFE837BD4680BD00BF80B483B0E8
:1034C00000AF786000BF0C37BD465DF8047B7047E5
:1034D00080B483B000AF786000BF0C37BD465DF8A4
:1034E000047B704780B483B000AF78600B467B806C
:1034F00000BF0C37BD465DF8047B704780B590B0C7
:1035000000AFF860B9603B601346FB7150E0BB6CE4
:10351000B3F1FF3F4CD0BB6C002B07D0FDF73EFE54
:1035200002463B68D31ABA6C9A4241D2FB681B68C8
:103530000C33BB62BB6A53E8003F7B627B6A23F4B7
:10354000D073FB63FB681B680C33FA6B7A633B63D5
:10355000396B7A6B41E80023FB62FB6A002BE5D1F3
:10356000FB681B6814337B617B6953E8003F3B6158
:103570003B6923F00103BB63FB681B681433BA6B20
:103580003A62FB61F9693A6A41E80023BB61BB69B1
:10359000002BE5D1FB68202283F83D20FB68202228
:1035A00083F83E20FB68002283F83C2003230FE0D1
:1035B000FB681B681A68BB681340BA689A420CBF64
:1035C00001230023DBB21A46FB799A429FD00023E5
:1035D00018464037BD4680BD80B485B000AFF86066
:1035E000B9601346FB80FB68BA689A62FB68FA8888
:1035F0009A85FB68FA88DA85FB6800221A64FB6802
:10360000222283F83E20FB68002283F83C20FB68DE
:103610001B69002B07D0FB681B68DA68FB681B6816
:1036200042F48072DA60FB681B685A69FB681B68A9
:1036300042F001025A61FB681B68DA68FB681B688C
:1036400042F02002DA60002318461437BD465DF8C8
:10365000047B704780B495B000AF78607B681B68CE
:103660000C337B637B6B53E8003F3B633B6B23F482
:103670009073FB647B681B680C33FA6C3A64FB63E1
:10368000F96B3A6C41E80023BB63BB6B002BE5D1BF
:103690007B681B6814333B623B6A53E8003FFB6165
:1036A000FB6923F00103BB647B681B681433BA6CAD
:1036B000FA62BB62B96AFA6A41E800237B627B6AFC
:1036C000002BE5D17B681B6B012B19D17B681B6834
:1036D0000C33FB60FB6853E8003FBB60BB6823F022
:1036E00010037B647B681B680C337A6CBA617B6166
:1036F0007969BA6941E800233B613B69002BE5D158
:103700007B68202283F83E207B6800221A6300BF7A
:103710005437BD465DF8047B704780B584B000AF78
:1037200078607B689B6BFB60FB680022DA85FB6836
:103730000022DA84F868FFF7CBFE00BF1037BD46E1
:1037400080BD80B485B000AF78607B6893F83D3071
:10375000DBB2212B3ED17B689B68B3F5805F14D12F
:103760007B681B69002B10D17B681B6AFB60FB68C0
:103770001B881A467B681B68C2F308025A607B6884
:103780001B6A9A1C7B681A6208E07B681B6A591CDA
:103790007A6811621A787B681B685A607B68DB8CD8
:1037A0009BB2013B9BB27A681946D184002B0FD1A2
:1037B0007B681B68DA687B681B6822F08002DA602D
:1037C0007B681B68DA687B681B6842F04002DA603D
:1037D000002300E0022318461437BD465DF8047B41
:1037E000704780B582B000AF78607B681B68DA688C
:1037F0007B681B6822F04002DA607B68202283F835
:103800003D207868FFF75AFE002318460837BD466A
:1038100080BD80B58CB000AF78607B6893F83E3097
:10382000DBB2222B40F0AB807B689B68B3F5805FF6
:1038300017D17B681B69002B13D10023FB627B68C7
:103840009B6ABB627B681B685B689BB2C3F308031F
:103850009AB2BB6A1A807B689B6A9A1C7B689A62E0
:1038600026E07B689B6AFB620023BB627B689B68E7
:10387000B3F5805F07D07B689B68002B0AD17B681B
:103880001B69002B06D17B681B685B68DAB2FB6A98
:103890001A7008E07B681B685B68DBB203F07F038B
:1038A000DAB2FB6A1A707B689B6A5A1C7B689A6260
:1038B0007B68DB8D9BB2013B9BB27A681946D18550
:1038C000002B5AD17B681B68DA687B681B6822F082
:1038D0002002DA607B681B68DA687B681B6822F468
:1038E0008072DA607B681B685A697B681B6822F00B
:1038F00001025A617B68202283F83E207B681B6BA3
:10390000012B35D17B6800221A637B681B680C335E
:103910007B617B6953E8003F3B613B6923F0100307
:103920007B627B681B680C337A6A3A62FB61F969D7
:103930003A6A41E80023BB61BB69002BE5D17B6893
:103940001B681B6803F01003102B0AD10023FB60D7
:103950007B681B681B68FB607B681B685B68FB609F
:10396000FB687B689B8D19467868FFF7BBFD02E01A
:103970007868FCF72BFE002302E0002300E002231E
:1039800018463037BD4680BD2DE9B04FC0B000AFFE
:10399000C7F8F400D7F8F4301B681B6923F44050D3
:1039A000D7F8F430D968D7F8F4301A6840EA010340
:1039B0001361D7F8F4309A68D7F8F4301B691A43CA
:1039C000D7F8F4305B691A43D7F8F430DB69134356
:1039D000C7F8F830D7F8F4301B68DB6823F41641D9
:1039E00021F00C01D7F8F4301A68D7F8F8300B43FF
:1039F000D360D7F8F4301B685B6923F44070D7F8C4
:103A0000F4309969D7F8F4301A6840EA0103536139
:103A1000D7F8F4301A688F4B9A4205D0D7F8F430B3
:103A20001A688D4B9A4204D1FEF748FBC7F8FC0098
:103A300003E0FEF72FFBC7F8FC00D7F8F430DB6992
:103A4000B3F5004F40F00C81D7F8FC300022C7F8E6
:103A5000E830C7F8EC20D7E93A4522462B469118C2
:103A6000B9655B41FB65D7E91623214612EB0108D6
:103A7000294643EB01094FF000024FF000034FEAE3
:103A8000C90343EA58734FEAC80290469946234651
:103A900018EB0303C7F8E0302B4649EB0303C7F8E4
:103AA000E430D7F8F4305B680022C7F8D830C7F8A4
:103AB000DC20D7E936120B46DB183B65134642EB98
:103AC00003037B65D7E91423D7E93801FCF7E0FB52
:103AD00002460B46614BA3FB02235B091C01D7F88E
:103AE000FC300022C7F8D030C7F8D420D7E9348999
:103AF00042464B469118B9645B41FB64D7E91223F7
:103B0000414612EB010A494643EB010B4FF000021C
:103B10004FF000034FEACB0343EA5A734FEACA025D
:103B200092469B4643461AEB0303C7F8C8304B4600
:103B30004BEB0303C7F8CC30D7F8F4305B680022B6
:103B4000C7F8C030C7F8C420D7E930120B46DB18DD
:103B50003B64134642EB03037B64D7E91023D7E9A8
:103B60003201FCF795FB02460B4611463B4BA3FB8B
:103B700001235B09642202FB03F3CB1ADB0003F190
:103B80003202364BA3FB02235B095B0003F4F8739C
:103B90001C44D7F8FC300022C7F8B830C7F8BC2066
:103BA000D7E92E8942464B469118B9635B41FB63C6
:103BB000D7E90E2341465118396349464B417B638F
:103BC0004FF000024FF00003D7E90CAB5946CB0091
:103BD000514643EA51735146CA00104619460346FE
:103BE00042469B18C7F8B0304B460A4642EB0303E7
:103BF000C7F8B430D7F8F4305B680022C7F8A830B3
:103C0000C7F8AC20D7E92A120B46DB18BB62134673
:103C100042EB0303FB62D7E90A23D7E92C01FCF747
:103C200037FB02460B460D4BA3FB02135B096421D5
:103C300001FB03F3D31ADB003233084AA2FB032350
:103C40005B0903F00702D7F8F4301B6822449A603E
:103C500005E100BF00100140001401401F85EB5139
:103C6000D7F8FC300022C7F8A030C7F8A420D7E965
:103C7000288942464B46911839625B417B62D7E9FD
:103C8000082341465418494643EB01054FF0000212
:103C90004FF00003EB0043EA5473E20014461D4664
:103CA0004346E318C7F898304B4645EB0303C7F883
:103CB0009C30D7F8F4305B680022C7F89030C7F822
:103CC00094204FF000024FF00003D7E92445294625
:103CD0008B00214643EA917321468A00D7E92601E9
:103CE000FCF7D6FA02460B46604BA3FB02235B09A6
:103CF0001C01D7F8FC300022C7F88830C7F88C20A8
:103D0000D7E9228942464B469118B9615B41FB6174
:103D1000D7E9062341465118396149464B417B6139
:103D20004FF000024FF00003D7E904AB5946CB0037
:103D3000514643EA51735146CA001046194603469C
:103D400042469B18C7F880304B460A4642EB0303B5
:103D5000C7F88430D7F8F4305B680022BB67FA6795
:103D60004FF000024FF00003D7E91E8949468B004F
:103D7000414643EA917341468A00D7E92001FCF7A6
:103D800087FA02460B46394BA3FB02135B096421F9
:103D900001FB03F3D31A1B013233344AA2FB032382
:103DA0005B0903F0F0031C44D7F8FC3000223B67AA
:103DB0007A67D7E91C8942464B469118B9605B4146
:103DC000FB60D7E9022341465118396049464B410F
:103DD0007B604FF000024FF00003D7E900AB59467B
:103DE000CB00514643EA51735146CA00104619466A
:103DF000034642469B18BB664B460A4642EB03030A
:103E0000FB66D7F8F4305B6800223B667A664FF0B9
:103E100000024FF00003D7E9188949468B0041465C
:103E200043EA917341468A00D7E91A01FCF730FA58
:103E300002460B460D4BA3FB02135B09642101FBF9
:103E400003F3D31A1B013233084AA2FB03235B0995
:103E500003F00F02D7F8F4301B6822449A6000BFC9
:103E600007F58077BD46BDE8B08F00BF1F85EB51D9
:103E70000A22002100F056B9014B1868704700BFB4
:103E80001400002070B50D4D0D4C641BA4100026CD
:103E9000A64209D10B4D0C4C01F0C4F8641BA410D0
:103EA0000026A64205D170BD55F8043B984701365F
:103EB000EEE755F8043B98470136F2E7CC5200088C
:103EC000CC520008CC520008D052000802440346ED
:103ED000934200D1704703F8011BF9E70FB40A4B76
:103EE00013B51C6824B1A36913B9204600F0FEFA8B
:103EF00005AB049AA1680193204600F007FD02B0CB
:103F0000BDE8104004B070471400002070B50E46A4
:103F1000054618B183690BB900F0E8FAAB69AC68E3
:103F200013B9284600F0E2FA2C4B9C4220D16C6871
:103F3000636EDB0705D4A389980502D4A06D00F059
:103F400073FBA38919071DD52369DBB1013EA36863
:103F500016F8011F013BA36039BB002B38DA22465B
:103F60000A21284600F0E8F8013011D00A2511E0B6
:103F70001B4B9C4201D1AC68DAE71A4B9C4208BF4C
:103F8000EC68D5E72146284600F028F90028DDD066
:103F90004FF0FF35636EDA0705D4A3899B0502D481
:103FA000A06D00F042FB284670BD002B04DAA26928
:103FB0009A4206DC0A2904D023685A1C2260197030
:103FC000C5E72246284600F0B7F80130BFD1DFE749
:103FD00023680A255A1C22601D70DBE75052000836
:103FE0007052000830520008024B01461868FFF773
:103FF0008DBF00BF1400002010B57AB1034601390F
:10400000841813F8010B11F8012F904201D1A3423B
:1040100001D1801A10BD0028F3D1FAE71046F9E764
:10402000012B2DE9F04701D0242B06D9FFF724FFFF
:10403000162303600020BDE8F087DFF8E4C00D46DA
:104040002E4615F8014B14F80C7017F00807F7D13D
:104050002D2C32D12C780127B51C002B5BD0102BD6
:1040600009D1302C07D12C7804F0DF04582C4DD125
:104070006C781023023507F1004808F1FF384FF043
:10408000000CB8FBF3F9664603FB198AA4F1300E65
:10409000BEF1090F16D87446A34224DDBCF1000F0F
:1040A0001EDBB1451CD301D1A24519DB06FB03463B
:1040B0004FF0010C15F8014BE8E72B2C04BF2C78CE
:1040C000B51CCAE7A4F1410EBEF1190F01D8373C67
:1040D000E2E7A4F1610EBEF1190F04D8573CDBE70B
:1040E0004FF0FF3CE6E7BCF1000F05DA2223036046
:1040F000464642B930469EE707B17642002AF9D0DB
:10410000BCF1000F00D0691E1160F3E73024002BD2
:10411000B1D10823AFE7302CA5D00A23ABE700BF0D
:104120002D51000813460A46014602480068FFF771
:1041300077BF00BF14000020F8B50E4614460546B0
:1041400018B183690BB900F0D1F9214B9C422BD1F6
:104150006C68A369A360A3891A072FD523696BB381
:1041600023692068C01A6369F6B28342374604DCCB
:104170002146284600F026F930BBA368013BA36026
:1041800023685A1C22601E7063690130834204D088
:10419000A389DB0706D50A2E04D12146284600F064
:1041A00011F988B93846F8BD0A4B9C4201D1AC6878
:1041B000CFE7094B9C4208BFEC68CAE72146284676
:1041C00000F00CF80028CBD04FF0FF37EAE700BF33
:1041D000505200087052000830520008324B70B53F
:1041E0001D6806460C4625B1AB6913B9284600F098
:1041F0007DF92E4B9C420FD16C68A389B4F90C2039
:1042000019072CD4DD0611D40923336042F0400392
:10421000A3814FF0FF303EE0254B9C4201D1AC68BA
:10422000EBE7244B9C4208BFEC68E6E7580712D541
:10423000616B41B104F14403994202D0304600F071
:104240005BFA00236363A38923F02403A381002383
:10425000636023692360A38943F00803A381236972
:104260004BB9A38903F42073B3F5007F03D0214633
:10427000304600F001FAA089B4F90C2010F00103D7
:104280000AD00023A36063695B42A361236943B939
:1042900010F08000BAD170BD810758BF6369A36078
:1042A000F4E70020F7E700BF140000205052000898
:1042B00070520008305200088A892DE9F041054605
:1042C00010070C4658D44B68002B05DC0B6C002BF8
:1042D00002DC0020BDE8F081E66A002EF9D0002360
:1042E00012F480522F682B6032D0606DA3895A0778
:1042F00005D56368C01A636B0BB1236CC01A002329
:104300000246E66A216A2846B047431CA38906D1C3
:1043100029681D292CD82A4ACA40D60728D5002248
:104320006260D9042269226004D5421C01D12B6845
:1043300003B96065616B2F600029CAD004F14403A2
:10434000994202D0284600F0D7F900206063C1E707
:10435000216A01232846B047411CC7D12B68002B96
:10436000C4D01D2B01D0162B01D12F60B1E7A3893A
:1043700043F04003A381ADE70F69002FA9D0930755
:104380000E6808BF4B690F6018BF0023A6EB070833
:104390008B60B8F1000F9CDD216AA66A43463A465D
:1043A0002846B047002806DCA38943F04003A381D8
:1043B0004FF0FF308EE70744A8EB0008E9E700BFA5
:1043C0000100402038B50B6905460C4613B900259D
:1043D000284638BD18B183690BB900F087F8144B33
:1043E0009C421BD16C68B4F90C30002BEFD0626E8C
:1043F000D00704D4990502D4A06D00F015F9284621
:104400002146FFF759FF636EDA070546E0D4A3891A
:104410009B05DDD4A06D00F008F9D9E7054B9C425F
:1044200001D1AC68DFE7044B9C4208BFEC68DAE7D7
:10443000505200087052000830520008002310B596
:104440000446C0E90033C0E90433836081814366D8
:10445000C2818361194608225C30FFF737FD054BA6
:104460006362054BA362054BE362054B2462236341
:1044700010BD00BFB54E0008D74E00080F4F000812
:10448000334F0008014900F0AFB800BFC543000832
:1044900070B568224D1E55430E4605F1740100F0BB
:1044A00097F9044640B10021C0E900160C30A06025
:1044B00005F16802FFF70AFD204670BD014800F0D3
:1044C000B3B800BF71010020014800F0AEB800BFD2
:1044D00071010020014800F0A7B800BF7201002060
:1044E000014800F0A2B800BF7201002010B50446D8
:1044F000FFF7F0FFA3691BB1BDE81040FFF7F0BF65
:10450000C4E912332365134B134A1B68A262A3420A
:1045100004BF0123A361204600F020F8606020461C
:1045200000F01CF8A060204600F018F80022E060BF
:1045300004216068FFF782FFA06801220921FFF7CC
:104540007DFFE06802221221FFF778FF0123A361BB
:10455000D2E700BF2851000885440008F8B5074697
:10456000FFF7ACFF1E4B1E68B36913B93046FFF767
:10457000BDFF4836D6E90134013B03D533680BB3A0
:104580003668F7E7B4F90C50D5B9164BE36004F17F
:104590005800656600F047F8FFF796FFC4E901553B
:1045A000C4E904552560A5610822294604F15C0090
:1045B000FFF78CFCC4E90D55C4E912552046F8BD3F
:1045C0006834D9E704213846FFF762FF04463060BB
:1045D0000028D5D1FFF778FF0C233B60EEE700BF42
:1045E000285100080100FFFF2DE9F84306468846E0
:1045F00000F148040027D4E90195B9F1010905D576
:104600002468002CF7D13846BDE8F883AB89012B2C
:1046100007D9B5F90E30013303D029463046C047DB
:1046200007436835E9E770477047704770B50E4635
:10463000B1F90E10002996B014461D4608DAB6F9F5
:104640000C3000222A601A0610D44FF480630EE06A
:104650006A4600F095FC0028F1DB019A02F47042F2
:10466000A2F500535A425A412A60EEE74023002047
:10467000236016B070BD00008B8973B59D07064698
:104680000C4607D504F147032360236101236361CE
:1046900002B070BD01AB6A46FFF7C8FF009905463E
:1046A000304600F095F848B9B4F90C309A05EFD4CB
:1046B00023F0030343F00203A381E3E70D4BB3624E
:1046C000A389206043F08003A381009B6361019B69
:1046D00020615BB1B4F90E10304600F063FC28B1E4
:1046E000A38923F0030343F00103A381A0890543B9
:1046F000A581CDE78544000837B5002944D051F89D
:10470000043C0190002BA1F10404B8BFE41800F0B0
:104710006BFC1E4A0198136833B96360146003B0E0
:10472000BDE8304000F066BCA34208D92568611995
:104730008B4201BF19685B6849192160EDE71A4691
:104740005B680BB1A342FAD911685518A5420BD189
:10475000246821445418A3421160E0D11C685B68AE
:10476000536021441160DAE702D90C230360D6E7D5
:10477000256861198B4204BF19685B68636004BFD8
:10478000491921605460CAE703B030BD74010020AC
:1047900070B50E4E0C463168054611B900F07AFB33
:1047A00030602146284600F075FB431C0AD0C41C2B
:1047B00024F00304A04207D0211A284600F06AFB27
:1047C000013001D14FF0FF34204670BD7801002048
:1047D0002DE9F041CD1C25F0030508350C2D38BF1F
:1047E0000C25002D074601DBA94205D90C233B60AF
:1047F00000263046BDE8F0812E4E00F0F5FB336810
:104800001C4634BB29463846FFF7C2FF431C04460A
:104810004DD134682646002E40D1236831463846B3
:1048200004EB030800F036FB80453AD121680335DC
:104830006D1A25F0030508350C2D38BF0C252946C7
:104840003846FFF7A5FF01302BD023682B442360A7
:104850000EE02268521B1ED40B2A16D96119A342FE
:10486000256018BF5960636808BF316062514B60B2
:10487000384604F10B0600F0BDFB26F00706231DA9
:10488000F21AB6D09B1BA350B3E76268A3420CBFD9
:1048900032605A60ECE723466468B2E734467668D3
:1048A000B9E70C233B60384600F0A4FBA1E7256084
:1048B000DEE700BF740100209368013B002B10B4B9
:1048C000936008DA9469A34201DB0A2903D15DF8F9
:1048D000044BFFF731BC1368581C10601970084670
:1048E0005DF8044B7047F8B506460F461446D518D8
:1048F000AC4201D1002007E014F8011B3A463046D3
:10490000FFF7DAFF431CF3D1F8BD00002DE9F04FAB
:104910000D469DB014469846064618B183690BB9FA
:10492000FFF7E4FD894B9D421BD175686B6ED9077B
:1049300005D4AB899A0502D4A86DFFF775FEAB8943
:104940001B0701D52B69EBB929463046FFF746FC1A
:10495000C0B16B6EDC070ED54FF0FF301DB0BDE867
:10496000F08F7B4B9D4201D1B568DFE7794B9D42CB
:1049700008BFF568DAE7AB899805EDD4A86DFFF7B5
:1049800054FEE9E70023099320238DF82930CDF860
:104990000C803023DFF8C0818DF82A304FF00109F8
:1049A00023469A4613F8012B0AB1252AF9D1BAEB0E
:1049B000040B0BD05B46224629463046FFF793FF97
:1049C000013000F0AA80099A5A4409929AF80030FE
:1049D000002B00F0A28000234FF0FF32CDE9052329
:1049E0000AF1010A049307938DF853301A93544641
:1049F000052214F8011B5848FBF7FAFB049AD8B9B2
:104A0000D10644BF20238DF85330130744BF2B2316
:104A10008DF853309AF800302A2B15D0079A544657
:104A200000204FF00A0C214611F8013B303B092BC6
:104A30004ED9B0B1079214E0A0EB080309FA03F3D2
:104A400013430493A246D2E7039B191D1B680391ED
:104A5000002BBBBF5B4242F0020207930793B8BF33
:104A6000049223782E2B0CD163782A2B35D1039B0B
:104A70001A1D1B680392002BB8BF4FF0FF3302349E
:104A80000593DFF8E4A0217803225046FBF7B0FB42
:104A900040B14023A0EB0A0003FA00F0049B03435B
:104AA0000134049314F8011B2C488DF828100622B9
:104AB000FBF79EFB00283FD0294B1BBB039B073312
:104AC00023F0070308330393099B3B44099367E7EB
:104AD0000CFB02320C460120A5E7002301340593AC
:104AE00019464FF00A0C204610F8012B303A092ADB
:104AF00003D9002BC5D00591C3E70CFB0121044667
:104B00000123F0E703AB00932A46164B04A9304675
:104B1000AFF300800746781CD6D16B6ED90705D459
:104B2000AB899A0502D4A86DFFF77FFDAB895B06C0
:104B30003FF512AF099811E703AB00932A46094BE2
:104B400004A9304600F080F8E4E700BF50520008A6
:104B50007052000830520008905200089A52000823
:104B600000000000E7480008965200082DE9F047D1
:104B7000164699468A680B69DDF820809342B8BFD3
:104B80001346336091F8432007460C460AB10133BF
:104B900033602368990642BF336802333360256867
:104BA00015F0060506D104F1190AE36832689B1A6C
:104BB000AB4226DC94F84320131E226818BF012361
:104BC00092062BD404F1430249463846C0470130CF
:104BD0001ED02368E568326803F00603042B08BF83
:104BE000AD1AA36822690CBF25EAE575002593423A
:104BF000C4BF9B1AED1800261A34B5421AD1002002
:104C000008E00123524649463846C047013003D1E7
:104C10004FF0FF30BDE8F0870135C6E7E1185A1CB8
:104C2000302081F84300224494F8451082F8431064
:104C30000233C7E70123224649463846C0470130C0
:104C4000E6D00136D9E700002DE9FF470F7E0C9D25
:104C5000782F914680460C469A4601F1430207D8C8
:104C6000622F0AD8002F00F0D880582F00F0A380C0
:104C700004F1420584F842703AE0A7F16303152B72
:104C8000F6D801A151F823F0E14C0008F54C0008DA
:104C9000714C0008714C0008714C0008714C000800
:104CA000F54C0008714C0008714C0008714C00086C
:104CB000714C0008014E0008254D0008E34D000826
:104CC000714C0008714C0008234E0008714C00081C
:104CD000254D0008714C0008714C0008EB4D000890
:104CE0002B681A1D1B682A6004F1420584F84230C3
:104CF0000123A3E020682968060601F104030AD510
:104D00000E682B60002E03DA2D23764284F84330A0
:104D10005E480A2319E00E682B6010F0400F18BFA0
:104D200036B2EFE72B682068191D2960010601D50E
:104D30001E6802E04606FBD51E8854486F2F0CBF44
:104D400008230A23002184F843106568A560002D1C
:104D5000A2BF216821F0040121600EB9002D4DD0C1
:104D60001546B6FBF3F103FB1167C75D05F8017D3E
:104D70003746BB420E46F4D9082B0BD12368DE0719
:104D800008D5236961689942DEBF302305F8013CEC
:104D900005F1FF35521B2261CDF800A04B4603AA56
:104DA00021464046FFF7E2FE01304CD14FF0FF3084
:104DB00004B0BDE8F087354881F84570296823685C
:104DC00051F8046B29601D0614D5DF0744BF43F07A
:104DD000200323601EB9236823F0200323601023DF
:104DE000B0E7236843F0200323607823284884F841
:104DF0004530E3E7590648BFB6B2E6E71546BBE7DC
:104E00002B6826686169181D286035061B6801D566
:104E1000196002E07006FBD5198000232361154656
:104E2000BAE72B681A1D2A601D68626800212846AF
:104E3000FBF7DEF908B1401B606063682361002363
:104E400084F84330A8E723692A4649464046D047BC
:104E50000130ABD023689B0713D4E068039B9842D2
:104E6000B8BF1846A4E70123324649464046D0471A
:104E700001309BD00135E36803995B1AAB42F2DC49
:104E8000EBE7002504F11906F5E700BFA152000881
:104E9000B252000838B5064D0023044608462B6080
:104EA000FCF7A4F8431C02D12B6803B1236038BD82
:104EB0007C01002010B50C46B1F90E1000F0A0F8EE
:104EC0000028ABBF636DA3891B1823F48053ACBFCC
:104ED0006365A38110BD2DE9F0411F468B89DB0579
:104EE00005460C46164605D5B1F90E1002230022E0
:104EF00000F068F8A389B4F90E1023F48053A3815D
:104F000032463B462846BDE8F04100F017B810B5E0
:104F10000C46B1F90E1000F055F8431CA38915BFDB
:104F2000606523F4805343F48053A38118BFA381A9
:104F300010BDB1F90E1000F013B8000038B5074DE0
:104F400004460846114600222A601A46FBF7FDFF78
:104F5000431C02D12B6803B1236038BD7C010020C3
:104F600038B5064D0023044608462B60FCF709F8C7
:104F7000431C02D12B6803B1236038BD7C010020A3
:104F800038B5074D00230446084611462B60FCF750
:104F900004F8431C02D12B6803B1236038BD00BF65
:104FA0007C01002038B5064D0023044608462B60DE
:104FB000FCF703F8431C02D12B6803B1236038BD12
:104FC0007C01002038B5074D0446084611460022F2
:104FD0002A601A46FBF7FCFF431C02D12B6803B181
:104FE000236038BD7C0100200148FFF71DBB00BFD6
:104FF000700100200148FFF718BB00BF70010020BE
:1050000038B5074D04460846114600222A601A4664
:10501000FBF77EFF431C02D12B6803B1236038BD30
:105020007C010020F8B500BFF8BC08BC9E46704764
:0C503000F8B500BFF8BC08BC9E467047F5
:10503C000D0A3D3D3D2050574D20434F4E54524F8D
:10504C004C4C4552205245414459203D3D3D0D00AC
:10505C0050574D2053544152540D000050574D2081
:10506C0053544F500D0000004652455120455252AA
:10507C000D0000004652455120256C7520487A0DD4
:10508C000A00000073657420000000005441524770
:10509C00455420256425250D0A00000066726571B3
:1050AC0020000000737461727400000073746F70E0
:1050BC00000000007374617475730000447574799A
:1050CC003A2025642525202D3E20256425250D0A12
:1050DC0000000000467265713A20256C7520487AF4
:1050EC000D0A00004F4E00004F4646005374617489
:1050FC00653A2025730D0A00434D44204552520D4C
:10510C000000000000000000000000000102030489
:10511C000607080900000000010203041800002023
:10512C00002020202020202020202828282828206B
:10513C002020202020202020202020202020202063
:10514C0020881010101010101010101010101010CB
:10515C0010040404040404040404041010101010BB
:10516C001010414141414141010101010101010185
:10517C0001010101010101010101010110101010D7
:10518C001010424242424242020202020202020257
:10519C0002020202020202020202020210101010AB
:1051AC0020000000000000000000000000000000D3
:1051BC0000000000000000000000000000000000E3
:1051CC0000000000000000000000000000000000D3
:1051DC0000000000000000000000000000000000C3
:1051EC0000000000000000000000000000000000B3
:1051FC0000000000000000000000000000000000A3
:10520C000000000000000000000000000000000092
:10521C000000000000000000000000000000000082
:10522C000000000000000000000000000000000072
:10523C000000000000000000000000000000000062
:10524C000000000000000000000000000000000052
:10525C000000000000000000000000000000000042
:10526C000000000000000000000000000000000032
:10527C000000000000000000000000000000000022
:10528C0000000000232D302B2000686C4C0065665C
:10529C00674546470030313233343536373839417B
:1052AC004243444546003031323334353637383991
:0852BC00616263646566000095
:0852C400FCAFFF7F01000000B8
:0452CC00B501000820
:0452D0009101000840
:1052D40032320000204E00000024F40010000000D0
:1052E40001000000180000200000000050520008D7
:1052F4007052000830520008000000000000000056
:105304000000000000000000000000000000000099
:105314000000000000000000000000000000000089
:105324000000000000000000000000000000000079
:105334000000000000000000000000000000000069
:08534400000000000000000061
:040000050800107D62
:00000001FF
